:020000040000FA
:20000000005000207D0F0000750F00005D0F0000790F0000790F0000790F0000000000005C
:20002000000000000000000000000000790F0000790F000000000000790F0000790F0000A0
:200040007D350000790F000079DE0000790F0000492C0000A9300000790F0000790F000029
:20006000790F0000A1DE0000790F0000790F0000790F0000790F0000790F0000790F000049
:20008000790F0000790F0000790F0000790F0000790F0000790F0000790F0000790F000020
:2000A000790F0000790F0000790F0000790F0000790F0000790F0000790F0000790F000000
:2000C000790F0000790F0000294B1B689B0702D44FF000407047F0B5002083B0452102F01B
:2000E00017FC0DF10601012002220DF0A5FA38B901A802210DF0CAFA4FF0004003B0F0BDAA
:200100000DF10601002002220DF096FA0028EFD0BDF806305BBA9CB2200BADF804300EF0D2
:20012000B5FE0EF057FA0646C4F30B000F460EF0BDFE0DA3D3E9002304460D463046394680
:200140000EF01AFF02460B46204629460EF014FF0FF0ACF907490FF007FB0FF055FC03B011
:20016000F0BD00BFAFF300807B14AE47E17A843FDC0A00200000C84208B51F4B1B68032B67
:2001800033D1431E012B30D81C4A1D4B012812881B8812D018460EF079FE0022194B0EF059
:2001A000EBFE0022184B0EF0E7FE0FF07FF917490FF0DAFA0FF028FC08BD10B20EF076FE28
:2001C0000022104B0EF0D8FE09A3D3E900230EF0D3FE00220E4B0EF01BFD0FF067F90B4930
:2001E0000FF0C2FA0FF010FC08BD4FF0004008BD0000000000A06440000B0020422D002032
:20020000442D00200000F03E000059400000C84200004440000000002DE9F041664B1B687D
:200220004BB1664B002210F0380604461A609A8006D142073ED14FF000463046BDE8F08193
:2002400002F076FC5E4D286007E002F071FC2A686FF009039B1AC34203D501F021FE0028FA
:20026000F3D0584B1B78D907E5D5544D0120682102F04EFB29463B2006220DF0DDF9064654
:200280000020014602F044FB002E7ED02F786E78A878E9782A796B79202C6F702E70E87094
:2002A000A9706A712B715AD0102C65D0082C66D00026C2E702F03CFC414D286007E002F0C1
:2002C00037FC2A686FF009039B1AC34203D501F0E7FD0028F3D03B4B1B78DB07ABD5374D9D
:2002E0000120682102F014FB2946432006220DF0A3F9074600284DD095F8008095F801C0D3
:2003000095F802E0EF782A796B790020014685F8018085F800C085F803E0AF706A712B71E8
:2003200002F0F6FA042C06D0022C2BD0012C84D1B5F9040001E0B5F900000EF0B7FD1CA378
:20034000D3E900230EF042FF0FF0B0F81E490FF00BFA0FF059FB06463046BDE8F081B5F994
:20036000000001F0C7FC18490FF0FEF90FF04CFB06463046BDE8F081B5F90200F1E7B5F91E
:200380000400EEE7B5F90200D7E7284606210DF07DF950E7284606210DF078F938463946D7
:2003A00002F0B6FA4FF0004647E700BFAFF300800000000000606040300B0020080B002079
:2003C000902D0020582D00200000C842000000002DE9F04F144623F00047024657EA0400FB
:2003E0000E468FB01D469C46214634D06E4B26F0004A9A459346B14626DC24D09F4223DC1C
:20040000694B9F4200F08F80B9F1000FC0F28F804FF0000879BB644B9F4200F0A580634B00
:200420009F4267D0BCF1804F00F0E283604B9C4521D1B9F1000F1EDB104631460FB0BDE872
:20044000F04F0EF047BA62B10AF1404000F5801050EA0B0007D10346544918460FB0BDE886
:20046000F08F5745CCDD53480FB0BDE8F04F0EF02FBB4FF0000810463146CDF808C000925F
:200480000EF0EEFA009ADDF808C0BBF1000F20D04FEAD97909F1FF3958EA09037AD0464BAE
:2004A0009F4240F38F8003F104739F4240F31084424B9A4540F39283BCF1000F40F392834E
:2004C00037A1D1E900010B4602460EF055FD0346C3E7BAF1000F04D0344B29F0404E9E4516
:2004E000D6D1BCF1000FC0F2B683B9F1000F08DB0346B2E7BCF1000FC0F25284134631461C
:20050000ABE70AF1404A0AF5801A58EA0A0340F05E8402460B460EF07BFB0B4602460EF026
:2005200055FE034699E700293FF46EAF8CE7244B9F422CDCA3F154739F427FF769AF40F25F
:2005400013403B15834240F34B84C3F58663033321FA03F000FA03F38B427FF459AF00F024
:200560000100C0F1020855E70AF1404303F5801353EA0B0300F03983104B9A4540F364832F
:20058000BCF1000FC0F22E832346294665E74FF002083FE7104631463346BCE7AFF300809E
:2005A0009C7500883CE4377E0000F07F0000F03F0000E03F880601000000E041FFFFEF3F34
:2005C000FFFF3F43BAF5801F4FF0000205DACA4B0EF0D2FC8A466FF034024FEA2A53C74E1C
:2005E000CAF3130AA3F2FF334AF07F571344B2450C9347F4401740F3D083C14B9A4540F327
:2006000007840026B4460C9BA7F5801701330C933946BC4B4FEACC0C6344D3E900AB524645
:200620005B46CDF834C0CDE906010EF0F1FA52465B46CDE90801DDE906010EF0EBFA0246CA
:200640000B460020B0490EF0C1FD02460B46DDE90801CDE90A230EF08FFC02460B46CDE951
:200660000223CDE904237B1043F0005303F5002399190020002306460F460293DDE9022336
:200680001046194632463B46CDE900010EF074FC02460B46DDE908010EF0BAFA5246CDE91F
:2006A00008015B46304639460EF0B2FA02460B46DDE906010EF0ACFA02460B46DDE9000187
:2006C0000EF05AFC02460B46DDE908010EF0A0FADDE90A230EF050FCDDE90423CDE90601DF
:2006E000104619460EF048FC02460B4606460F460EF042FC6EA3D3E9002382468B4630468E
:2007000039460EF039FC6CA3D3E900230EF082FA32463B460EF030FC69A3D3E900230EF0B3
:2007200079FA32463B460EF027FC67A3D3E900230EF070FA32463B460EF01EFC64A3D3E907
:2007400000230EF067FA32463B460EF015FC62A3D3E900230EF05EFA02460B465046594607
:200760000EF00AFCDDE9042306460F46DDE900010EF050FADDE906230EF0FEFB32463B46F9
:200780000EF048FADDE9006782468B4632463B46304639460EF0F0FB00225C4BCDE90801F4
:2007A0000EF038FA52465B460EF034FA02980F460646DDE9000132463B460EF0DDFB32465B
:2007C0003B46CDE90001DDE906010EF0D5FB0022CDE906014D4B304639460EF019FADDE903
:2007E00008230EF015FA02460B46504659460EF00FFADDE904230EF0BFFB02460B46DDE9E8
:2008000006010EF007FA82468B46DDE9000152465B460EF0FFF932A3D3E9002302980F46A0
:2008200006460EF0A9FB30A3D3E90023CDE90401304639460EF0A0FBDDE90023CDE9060129
:20084000304639460EF0E4F902460B46504659460EF0DEF926A3D3E900230EF08DFB0246AF
:200860000B46DDE906010EF0D5F9DDF834C0284BCDF818C06344D3E900230EF0CBF9CDE9B7
:2008800000010C980EF012FB06460F46DDE90401204BDDF818C09C44DDE90023DCE900ABEB
:2008A0000EF0B8F952465B4636E000BFAFF30080EF4E454A287ECA3F65DBC9934A86CD3F66
:2008C00001411DA96074D13F4D268F515555D53FFFAB6FDBB66DDB3F033333333333E33FC6
:2008E000000000E009C7EE3FF5015B14E02F3EBEFD033ADC09C7EE3F000040438E980300EC
:2009000079B60B00500501000000F03F000008404005010030050100CDE906AB0EF07AF97C
:2009200032463B460EF076F9029832463B4682468B460EF06DF9DDE906230EF069F9DDE9AC
:2009400004230EF065F902460B46DDE900010EF05FF9CDE9020108F1FF3858EA09030CBF5C
:20096000D54BD64B0022CDE904230023CDE900450093DDE90067204632463B4629460EF08D
:2009800047F952465B460EF0F7FADDE9022380468946204629460EF0EFFA02460B46404694
:2009A00049460EF037F904460D465246304639465B46CDE902450EF0DFFA06460F462046D4
:2009C0003B46294632460EF025F9BD4B824699428946884640F3138101F13F4303F5E00335
:2009E000034340F0E581A0A3D3E90023DDE902010EF010F9324604460D463B46504649466E
:200A00000EF006F902460B46204629460EF044FD002840F0CD814C462015A0F2FE304FF4BC
:200A2000801101414144C1F30A50A64CA0F2FF35C1F3130BC0F5826003302C414BF4801BB5
:200A400021EA040300224BFA00FB394630460EF0DFF806460F46DDE902018BEAE87B0BEB20
:200A6000D87B32463B464FEA0B5A0EF0D3F880A3D3E90023002420460D460EF07DFA3246F7
:200A8000804689463B46204629460EF0C1F802460B46DDE902010EF0BBF877A3D3E90023A8
:200AA0000EF06AFA76A3D3E9002306460F46204629460EF061FA02460B46304639460EF081
:200AC000A9F806460F4632463B46404649460EF0A1F842464B4604460D460EF099F80246A2
:200AE0000B46304639460EF093F82246804689462B46204629460EF03FFA63A3D3E90023C8
:200B000006460F460EF038FA61A3D3E900230EF07FF832463B460EF02FFA5FA3D3E90023AB
:200B20000EF078F832463B460EF026FA5CA3D3E900230EF06DF832463B460EF01DFA5AA3E4
:200B4000D3E900230EF066F832463B460EF014FA02460B46204629460EF05AF806460F46F6
:200B600032463B46204629460EF006FA0022CDE900014FF08043304639460EF049F8024652
:200B80000B46DDE900010EF021FB424606460F464B46204629460EF0EFF942464B460EF097
:200BA00039F802460B46304639460EF031F822462B460EF02DF802460B4600203F490EF014
:200BC00027F88A44BAF5801F0246C0F227815346DDE904010EF0D0F903463EE4BCF1000FE6
:200BE000FFF66EAC0023194637E40B46334934E43346104631460EF0BFF903462DE4324B91
:200C000021F000449C4240F3FA80304B0B4403430CD132463B460DF0FBFF02460B46DDE9B8
:200C200002010EF025FC00283FF4F6AE20A3D3E90023DDE904010EF09FF91DA3D3E90023F1
:200C40000EF09AF9034608E4BCF1000FCADA234605F1004101E402460B46002017490EF0D2
:200C6000B5FA42E4AFF30080FE822B654715973C00000000432EE63FEF39FAFE422EE63FF3
:200C8000396CA80C615C20BED0A4BE726937663EF16BD2C541BDBB3E2CDE25AF6A56113FA0
:200CA00093BDBE166CC1663F3E5555555555C53F59F3F8C21F6EA5010000F0BF0000F03F3C
:200CC000FFFF8F40FFFF0F00FFCB904000346F3F634B9A4582DD634B9A453FF7EDAB002255
:200CE000604B0DF095FF54A3D3E9002306460F460EF042F952A3D3E90023CDE90001304607
:200D000039460EF039F93246CDE902013B46304639460EF031F9002282468B4630463946A5
:200D2000514B0EF029F902460B4647A1D1E900010DF06EFF32463B460EF01EF902460B46AA
:200D400000204A490DF064FF02460B46504659460EF012F93EA3D3E900230EF00DF902469D
:200D60000B46DDE902010DF053FF06460F46DDE9000132463B460DF04DFFDDE90023002057
:200D800082468B460DF044FF02460B46304639460DF03EFFCDE90201DDE50026B44637E4FC
:200DA000334600202F490EF011FA0346FFF755BB29A3D3E90023DDE904010EF0DDF826A3B8
:200DC000D3E900230EF0D8F80346FFF746BBB8F1010F03467FF441AB01F10041FFF73DBBA4
:200DE00000297FF446ABC3F58263033347FA03F000FA03F3BB4217D08846FFF710BB1B4B96
:200E00009C423FF709AEDDE90023924693462EE64FF480264FF0010CFFF7FABB5A4600F0E9
:200E200027F802460B46D3E600F00100C0F10208FFF7F5BAAFF30080000000604715F73FDC
:200E400044DF5DF80BAE543E555555555555D53FFE822B654715F73F9C7500883CE4377EAD
:200E6000FEFFEF3F0000F03F0000D03F0000E03FF8B5C1F30A5604460D460B46174616BB0D
:200E800021F00043034332D00022314B0EF074F8304A044697420D460B4637DB40F2FE72B9
:200EA000C1F30A56363E3E44964215DD24A1D1E9000122462B460DF09FFE21A3D3E90023C8
:200EC0000EF05AF8F8BD40F2FF72964224D040F2FE723E449642E9DC002E09DD23F0FF4374
:200EE00023F4E00343EA065520462946F8BDF8BD16F1350F15DA4CF250339F42D6DC12A1F0
:200F0000D1E9000122462B460DF076FE0EA3D3E900230EF031F8F8BD02460B460DF07AFE52
:200F2000F8BD23F0FF4323F4E003363643EA0655204629460022084B0EF01EF8F8BD00BFE7
:200F40009C7500883CE4377E59F3F8C21F6EA50100005043B03CFFFF0000903C044B1A68D0
:200F6000B2F5806F03D01B689B0500D4FEE7704728ED00E0FEE700BFFEE700BF08B50AF081
:200F8000DFFE104A104B9A420DD2D0430F4918440B4620F003000430084453F8041B83422A
:200FA00042F8041BF9D10A480A494FF000028842B8BF40F8042BFADB00F08EF9FFF7CEFF71
:200FC00008BD00BF0000002071060020780A010078060020FA3700201146014803F03EB8DB
:200FE0007805010070B5028884B004465AB19B2A04D185291FD0012004B070BD002303805C
:20100000032004B070BD1148114E124D4FF4C873114603900193104A009602950F4808F0E3
:2010200015F941F690710D4808F048F90C4841F6907103F013F80B4B85211868002203F0C1
:20104000FFFF9B230120238004B070BDD90F00006C0800204112000080060020180800207A
:2010600084050100700F0020034A1368323B1846136001F0CBB800BF38040020034A1368EA
:2010800032331846136001F0C1B800BF3804002008B5044B187800F0D3FABDE80840024805
:2010A00003F056BD3C0400204C080020F0B5534983B004460FF030F9054600282ED1504F5F
:2010C0003E68012E00F087801EB320464D490FF023F9054628B94A4E3368012B6ED0002B68
:2010E00059D0204648490FF017F928B9474D2B68002B46D0012B7AD0204645490FF00CF90A
:2011000000282FD0204643490FF006F9C8B103B0F0BD012340483B6003F036FD20463F4984
:201120000FF0FAF805460028CFD1354E3368012B37D0002BD5D101233748336003F024FD3F
:20114000C3E703464FF420713548364A03F0F4FC354A1368323B1846136003B0BDE8F04028
:2011600001F054B803464FF420713048304A03F0E3FC2D4A136832331846136001F046F83A
:20118000C0E72C4801F0F2FD274B186801F03EF801232B60B0E701231F48336003F0F4FCF4
:2011A0009FE7254F03464FF0020E1B484021234A3560C7F800E003F0BFFC86E71E4F034667
:2011C0004FF0030E144840211C4A3560C7F800E003F0B2FC85E7DFF860E0034640210E4844
:2011E000164A3D60CEF8006003F0A6FC96E7019001F05EF8019828607EE700BF6C0A010026
:20120000100800209C050100A005010014080020B4050100B80501004C0800209805010088
:20122000FC0900207D100000380400201C0A002069100000A40501003C0400209110000036
:2012400038B514461D461946084802F007FF2046FFF72CFF2146064808F06AF820462A46D1
:2012600000210EF0E1FF002038BD00BFBC05010018080020F0B5002706463C463D4683B049
:20128000304600F0C9F90195019B9C4206DD00BF019B01330193019B9C42F8DC304600F05C
:2012A000C5F90195019BC4F5C874A34206DA00BF019B01330193019BA342F8DB0137B7F529
:2012C000487F06D0B7F5C87FCCBFC7F548743C46D6E703B0F0BD00BF2DE9F0415F4C84B0F7
:2012E00023685F4801215B689847236801210A461B685B4898470AF0E7F902F083F902F0BC
:20130000EDF801F055F802F027F900F07BF955495548564A012303600B6018461368FFF798
:20132000A9FF0AF0D5F901F005FC01F06FFB03F0E7FE01F0DFFC03F0F3FD41F2342004F0EE
:201340000DF801F07DFE03F07FFF494801F00EFD4AF630520021474802F080FE464801F0BD
:2013600005FD0021454803F09FFE03F0ABFB03F025FC0220FFF77EFF414802F06FFE414B77
:20138000414C186801F0F2FC404802F067FE404B186801F0EBFC3F4802F060FE21683E48B9
:2013A00002F05CFEE469A04720B1A04701463B4802F054FE0A2001F0D1FC00250BF0B0F837
:2013C00002A80821364C374E019501F007FD9DF80F209DF80E8002AB03CB42EA0828F76A89
:2013E0002060616002204AF6CD31B84741460320B84719210120B847082202A9736B0B206C
:201400009847B36A01A9012098470199264802F025FE264B626821685A6019600BF0ECF932
:201420002946234803F040FE0220FFF723FF2946204803F039FE204803F0EEFA01F068FCCE
:201440000120FFF717FF03F085FD044601F078FC14F0FF0FF7D101F02DFFF4E7D801001080
:2014600000400340080009400C4009402C200940E80501000C060100240601000C05002011
:201480003806010098080100EC09010040060100B80901004806010050060100540601006C
:2014A000C0370020B407010078060100A02D00209005002040040020700501002DE9F04117
:2014C00004880646772C30D07E2C27D024B1002303800320BDE8F08103F01AFD2F4F304B39
:2014E000304D3A6818702C60002A45D02346A0462D4C04F8038093688020002198472B6805
:20150000013357F823202B60002AF2D1DBB2274A1370772333800120BDE8F081204B1B788A
:201520008B4219D00120BDE8F081DFF880801D4D98F800201E4F002393423B602B6007DA61
:20154000194CE156002919DB013393422B60F7DB3B68002BEFD1DCE7124D134CDFF84C80BA
:20156000134F2B683A68E05C511C00F07F0098F80020E0543960E7E71346C8E70849074AC7
:20158000097852F82320002003F05AFD0028E8D17E2333800120BDE8F08100BF5004002034
:2015A000F63700203C0A0020842D0020542D0020400A002010B40F4B1C7864B10E4A136802
:2015C000984214D0002303E052F8041F88420CD00133A342F8D1094A0948135D63F07F0369
:2015E00013555DF8044B03F07FBD1C46F3E70024F1E700BF542D002050040020842D0020D3
:201600004004002008B500F025F8024B00221A7008BD00BF552D0020034A13780343184601
:20162000137000F033B800BF552D0020034A137823EA00031846137000F028B8552D0020B0
:20164000034A137843401846137000F01FB800BF552D00200A4B1A6802B1704710B50122FD
:20166000084C1A6023680A20DB6B984723680F20DB6B9847044B4FF404421A6010BD00BF05
:20168000440A0020B4010010A0200240094B0A494FF4044208701A60C20744BF4FF4806202
:2016A00043F8102C830703D5044B4FF400421A60704700BFA0200240562D002090200240F6
:2016C000813801289ABF024B18680020704700BF880A0020024B032202481A60FFF76ABF65
:2016E000880A00209C06010010B5044682B07721002001F00DF94CB98DF807400DF10701CE
:201700000122F4200BF0A6FF02B010BD25238DF80730F3E730B5802885B016D0812810D163
:201720001D4C206878B151B30120FFF7DDFF1B4803211B4A002303F0FFF90220206005B047
:2017400030BD154B186805B030BD134C012500207721256001F0DCF81249182288200BF05B
:201760006BFF04A9B62301F8013D2A46E0200BF071FF0020FFF7B8FF206805B030BD074821
:20178000019103F001FA01990846FFF7ADFF01231846236005B030BD880A0020680A002054
:2017A000D5160000500A0020F8B5534B1B68032B40F09A80431E012B00F296804F4C00232B
:2017C0007721054623601846A38001F0A1F82146F72006220BF030FF00287ED0E178484A67
:2017E00023796079090341EA0311168841EA1013C6EB131101FB01F1B2F9047076000913C9
:20180000B2F90200C6EBD30307FB01F100FB03F0891301EBE0204710A7F57A4E4FEAAE0682
:2018200006FB06F6B2F90810B2F90A70731301FB0EF103FB07F3B2F90E70491007FB0EF7C1
:2018400001EBE303B2F806C09B14B2F910E003F50043F61279000CFB03F30EFB061726787F
:201860006178B2F90CE094F802C036034FEA0E4446EA0111DB13906104EBA70741EA1C11D0
:2018800027D040F635444942A1EB273104FB01F101F1434101F5A0010029B3BFB1FBF3F308
:2018A0004900B1FBF3F35B00D90801FB01F1B2F91440B2F916609F08490B04FB07F401FB12
:2018C00006F1B2F91260621302EB2131314403EB2113012D0BD01846F8BD204606210BF005
:2018E000D5FE4FF00040F8BD4FF00040F8BD00EB800080300012F8BD880A0020480A0020A7
:20190000500A0020813801289ABF024B18680020704700BFB00A0020024B032202481A609F
:20192000FFF748BEB00A0020AC06010010B504464421002000F0ECFF002C064B14BF10242B
:20194000002402201C801946BDE8104002460BF081BE00BF402D002010B5802882B017D0FD
:20196000812811D11D4C206880B1002929D00120FFF7DCFF1A4824211A4A002303F0DCF8B1
:201980000220206002B010BD144B186802B010BD154C012023689B6B9847236801209B6926
:2019A0004FF48041984723684FF08041DB69012098470020FFF7BAFF084B0120186002B008
:2019C00010BD0748019103F0DFF801990846FFF7ADFF01231846236002B010BDB00A0020A7
:2019E000900A002019190000B401001038B5344B1B68032B07D1820705D003280FD00128B0
:201A000005D0022807D04FF00043184638BD2D4B1B68184638BD2C4B1B68184638BD2B4D08
:201A200044210446002000F073FF2946042002220BF002FE70BB264D254804210BF026FE74
:201A400000202C786B78A978EA7843EA042442EA01220028D7D090080DF032FE4FF0745120
:201A60000DF082FE1B490DF07FFE0DF0CDFF154B154D1860A0080DF023FE4FF074510DF041
:201A800073FE14490DF070FE0DF0BEFF01232860184638BD2B885BBA2B805B040C4DCBD589
:201AA0000120294602220BF0C7FD0028C4D02046A91C02220BF0C0FD0028C2D1BCE700BFD3
:201AC000B00A00208C0A0020B80A0020402D0020B40A002000007A44014B1868704700BF29
:201AE000DC0A002070B506460E4C82B000204521256800F00DFF76B905F002054FF486538D
:201B00002560ADF806300DF10601022201200BF0A1FD02B070BD41F2C2020123ADF80620BD
:201B20002360F0E7DC0A002000B5002083B0452100F0EEFE01200DF1060102220BF07CFD3D
:201B4000BDF90630002B08DB08481021084A002302F0F2FF03B05DF804FB0648FFF72AFD40
:201B6000054B02221A6003B05DF804FBBC0A0020291B0000CC060100DC0A0020802810B500
:201B80000DD0812809D10C4671B90D4802F0FCFF2046FFF7A7FF204610BD002010BD0020E5
:201BA000FFF7A0FF002010BD0120FFF79BFF04481021044A002302F0BFFF012010BD00BFA7
:201BC000BC0A0020291B0000813801289ABF024B18680020704700BF000B002038B5114CC8
:201BE000114A237803211160ABB1104D0020432100F08EFE0421284600F094FD20700020DD
:201C0000014600F085FE2A886B880948094952BA5BBA02800B80012323700748BDE8384071
:201C2000FFF7C8BC572D0020000B0020040B0020422D0020442D0020DC06010030B580289C
:201C400083B023D081281DD1234C2068E0B100293AD0224D2B785BB14321002000F058FE24
:201C6000002000F03DFD28700020014600F050FE1B4803211B4A002302F05EFF02202060DD
:201C800003B030BD144B186803B030BD164B0024164A174D20461C60432114802C8000F066
:201CA00037FE02A91023022021F8023D02460BF0D1FC0A4B21461870204600F029FE064B75
:201CC0000120186003B030BD054802F05DFF01231846236003B030BD000B0020572D0020BC
:201CE000E00A0020DD1B0000040B0020442D0020422D002008B5174B1B78032B28D8DFE8EC
:201D000003F01E150C020DF0D1F800224FF07D530DF032F90DF0CAFB08BD0DF0C7F800220B
:201D20000D4B0DF029F90DF0C1FB08BD0DF0BEF800220A4B0DF020F90DF0B8FB08BD0DF0FC
:201D4000B5F80022064B0DF017F90DF0AFFB08BD002008BD5B2D00200000303F0000203F8F
:201D60000000103F813801289ABF024B18680020704700BF300B0020024B022202481A60E6
:201D8000FFF718BC300B0020F406010010B50C4C0120682100F0BCFD3F23214601226C203B
:201DA00023700BF057FC21464F236B20012223700BF050FCBDE810400020014600F0A8BD30
:201DC0005C2D0020802838B50BD0812806D111F03F012DD1294B1B68DB043BD4284B186853
:201DE00038BD284C072023689B6B9847236807209B694FF40051984723684FF08041072008
:201E0000DB69984723680C20DB6B984723680C209B6A4FF480614FF4407298471A4A4FF468
:201E200080501A4B1060164900221A60086838BD1648174B124D4FF48052016001241A6069
:201E400014480821144A00232C6002F075FE2C60204638BD0D4B0F48196002F095FEFFF701
:201E600095FF0E4A136813F00103FBD1044A06494FF4805013600860106838BD802002404E
:201E8000300B0020B4010010A0200240340B002090200240100B0020C91E00000428004041
:201EA00010B5084C0120682100F032FD214601223A200BF0C1FB0020014600F029FD207890
:201EC00010BD00BF582D00202DE9F041354C236813F0380F15D1344D03F03F042E7856B9E2
:201EE0004CBBFFF753FFBDE8F04130480521304A002302F021BEE3B22B70002CF1D02D4F18
:201F00003DE02D4E3278002AE5D02C4F0025012068213D7000F0FCFC394601221C200BF0E8
:201F200099FB07462946284600F0F2FC2368002FD1D03570CFE71F4F0120682100F0E8FC63
:201F40000923394601226B203B700BF083FB3F23394601226C203B700BF07CFB17490122D4
:201F60001C202E700BF076FB394601223A200BF063FB3046314600F0CBFCE3B22B70DB43D4
:201F8000012068213B7000F0C3FC012209496C200BF060FB0020014600F0BAFC084809F090
:201FA0009BFBA0E7340B00205A2D0020100B0020791D00005C2D00205B2D0020592D002036
:201FC0008038010008B5034B1B685B689847C0F3804008BDB401001028B1012806BF054B04
:201FE000D86800207047044B186800F0010080F001007047380B0020C020024008B1002084
:202000007047034B186880F01000C0F300107047C0200240813801284FF0000000D970476E
:20202000FFF7D0BF8138012801D9002070470420FFF7C8BF802870B514460AD0812807D165
:20204000E9B9BDE87040194B10461B685B6B184770BD164B164A0125A5401B6815602046D0
:202060001B680021134A9847134AE0B21368134923EA05051560BDE8704001F057BA0B4E7E
:202080000B4A01253368A540156020461B680021084A9847084A31681368204623EA0505B2
:2020A00015600B6BBDE87040184700BFB4010010E020024000400720D0200240D920000029
:2020C00008B50022FFF7B6FF012008BD08B50422FFF7B0FF012008BD38B510B1042814D064
:2020E00038BD134C204603F04BF80028F8D02046042103F031F80F4B1B6813F001050CD196
:2021000000F0CCFCE560A06038BD4FF480414FF08052BDE8384000F0F1BF00F0BFFCA36845
:20212000C31AE3600448BDE83840FFF743BA00BF380B0020C020024014070100024B1868F6
:2021400000F00800704700BFC02002408138012801D90020704708B5034B03201B685B68E8
:202160009847C0F3804008BDB4010010802810B509D0812805D1134B03201B68E9B95B6B52
:202180009847012010BD0F4C032023685B6B98470D4B0E4A1B6808211160DB694FF4A06070
:2021A000984723680A4A1B680320002198470320084901F0BBF9012010BD1B6B984701202E
:2021C00010BD00BFB4010010B8010010E020024000200320D921000008B5074802F0D0FF99
:2021E00000B908BD0548FFF7E5F9BDE808400248402102F0B1BF00BF480B00203C070100D0
:20220000014B00221A7070475D2D002038B51D4C054623680020DB699847236800205B6A86
:20222000984723680020DB6A9847174B0121174A196013689B07FCD5154B15201B68172154
:202240001B684FF4C042984740F20A21114A124B1160124801221A7001F034F9104B002DA4
:202260001A6822F001021A600BDD0E480E4A90FBF5F00E4C4108206011601A6842F00102FC
:202280001A6038BDB80100102820086028200840B4010010040001405D2D0020740400207A
:2022A0000C000140006CDC023000014028000140154B70B5154800241C7001F009F9144ACA
:2022C000144D1368296823F0010313600B6A204698472B6820469B6A98472B6820461B6BF1
:2022E00098470D4B01210D4A196013689B07FCD50B4C152023689B6B9847236815201B6A86
:202300000021BDE8704018475D2D0020740400200C000140B8010010282008602820084050
:20232000B401001010B5064C042023685B699847236804205B6B98470128F9D110BD00BF9C
:20234000B8010010FFF7EEBF032801D000F016B908B5FFF7ADFF104B00219B6881209847F8
:202360000E4B00219B68812098470D4B00219B68812098470B4B00219B68812098470A4B15
:2023800081209B6800219847084B4FF480521A60BDE8084000F0F2B89C060100CC060100BA
:2023A000AC060100DC060100F4060100A020024070B509F089F90646FFF7B4FF3C4B4FF42B
:2023C000A0601B68DB6998473A4B01213A4A196013689B07FCD5394C00F0A2F8FFF710FFB1
:2023E0000BF01CFA364801F06DF8236819209B6B984723684FF4005119209B699847236889
:2024000018209B6B984723684FF4005118209B699847236817209B6B984723684FF400519F
:2024200017209B69984723681B209B6B984723684FF400511B209B69984723681E209B6BCB
:20244000984723684FF480411E209B69984723680D20DB6B98471B4A4FF400552368156013
:2024600000214FF480729B6A0D209847236802209B6B9847236829469B69022098472368D9
:202480000B209B6B9847236829469B690B20984723681D209B6B9847236829469B691D203C
:2024A000984706B170BDBDE8704009F011B900BFB80100102820086028200840B4010010B4
:2024C00088040020A020024010B5094B09481B685B68984710F00C0F044605D0064B04220E
:2024E0001A60022009F0F8F8B4FA84F0400910BDAC010010002000400428004008B5064B88
:2025000002201B685B6B9847012803BF034B186800F00100002008BDB80100106020084051
:2025200070B5104D02202B685B6998472B6802205B6B9847012804460A4BF7D11B684FF411
:202540004070DB699847084B084A1C6013689B07FCD5074B07481B6807491B680122BDE8DA
:2025600070401847B80100102820086028200840AC01001000200040006CDC02214B10B5AB
:20258000FF221A70FFF7BAFF20B11F491F4A00230B6013601E4B4FF440701B681B6A9847FB
:2025A0001C4B01211C4A196013689B07FCD51B4C082023689B6B984723684FF4005108207F
:2025C0009B699847236809209B6B984723684FF4005109209B699847236805209B6B9847BF
:2025E00023684FF4804105209B699847236806209B6B9847236806209B694FF48041BDE850
:20260000104018476E0600200428004010040542B80100102820086028200840B4010010E2
:202620002DE9F84305462A4B2A4A1B780E465B0013602949037804320B601368274C5F067F
:20264000FBD403232360022009F046F82368D807FCD4FFF739FF012E034624D900B30135E3
:2026600006F1FF390224DFF870801C4F02E0B4421BD2013415F8012B631E9945C8F8002061
:20268000F5D901233B60022009F026F83B68D907FCD4FFF719FFB442034604D20028E8D11D
:2026A0000020BDE8F883002BFAD00C4C05232360022009F011F823461A68D207FCD4FFF734
:2026C00003FF064A13685B06FCD4BDE8F88300BF5E2D00200028004008280040042800402E
:2026E00010B50C4B0C4C1B780C495B000C4A2360086013680A4C5906FBD407232360022014
:2027000008F0EAFF2368DB07FCD4BDE81040FFF7DBBE00BF5E2D00200028004008280040D5
:20272000042800402DE9F84F8146274B274A1B7888465B0043F00103254913600B68244A71
:2027400013F04004FAD116460B231360022008F0C3FFB346DFF87CA008F1FF370125A74264
:2027600016DDFDB13368D807FCD4FFF7ADFE05460028F4D0DAF80020092309F8042001341E
:202780000220CBF80030E4B208F0A6FFA742E8DC45B10F4A13680E4DD907FBD4FFF794FEE8
:2027A000044618B900242046BDE8F88F094BC8441A68052308F8012C02202B6008F08CFFE1
:2027C0002B685B06FCD4EEE75E2D00200028004004280040082800402DE9F04F0546484F3A
:2027E00083B098463B780192464A5B0013608A460378454904320B601368444C5906FBD471
:2028000003232360022008F067FF2368DA07FCD4FFF75AFEBAF1010F034625D900B301351A
:202820000AF1FF390224DFF8E0B0384E02E054451CD2013415F8012B631E4B45CBF8002087
:20284000F5D201233360022008F046FF3368DB07FCD4FFF739FE5445034605D20028E8D187
:20286000002003B0BDE8F08F002BF9D0274A3B78154624485B0043F001030B21036002203F
:20288000116008F029FFAA461F4F08F1FF3601244FF0000BB34516D2002CE1D02B68D8077D
:2028A000FCD4FFF711FE04460028F3D03A680199092301F80B200220CAF8003008F00CFF6B
:2028C0000BF1010BE6E7002CCAD0104A13680F4CD907FBD4FFF7F8FD0028C1D0019A0A4BEA
:2028E000424490461A68052308F8012C0220236008F0F2FE23685B06FCD40120B1E700BFE4
:202900005E2D00200028004008280040042800402E4B10B504461970FFF7F0FDB0B12C4BFC
:202920001A78A24218D02B482B4900221C7002600A601B788BB1012B2BD0BDE81040274B7B
:2029400027481B6827491B6801221847FFF7E8FD1F4B1A78A242E6D110BD234C05202368B2
:202960004FF4C0419B699847236806209B694FF4C04198472368052106221948DB6C9847F8
:20298000236808209B6B9847236809209B6B9847D3E7154C082023684FF4C0419B69984711
:2029A000236809209B694FF4C04198472368082109220B48DB6C9847236805209B6B98474F
:2029C000236806209B6B9847B7E700BF5E2D00206E0600200428004010040542AC01001041
:2029E00000200040006CDC02B401001010B5064C042023685B699847236804205B6B9847AB
:202A00000128F9D110BD00BFB801001038B5194A00200021C2E90001174B04201B685B6B62
:202A20009847012801D0FFF7E1FF134B00201B68DB699847114B0121114A196013689B0754
:202A4000FCD5104A10491368096823F4807323F001030E4C13600B6820460D49984740F2D8
:202A600021220C490C4B04253120256008601A6038BD00BF78060020B801001028200860BB
:202A8000282008400C000140C801001000000140002100043C0001400800014010B409493E
:202AA000094C0B68226808688342FAD1DB01074903EB52620023C1E900235DF8044BD1E9A8
:202AC00000017047082009400C2009407806002010B50B490B4C0B68226808688342FAD14D
:202AE000DB01094903EB52620023C1E9002302F045F900B910BDBDE8104002F011B900BFF0
:202B0000082009400C2009407806002010B508F0DBFD034B1C6808B908F0DAFD204610BD07
:202B200008200940704700BF0146012000F060B808F0B8BD2DE9F04108F0C6FD194F1A4A03
:202B40001A4E1B4901243B68002535600C60146080461B682846232198473B6820461B68E1
:202B600024219847134A1449136823F4E02343F4403313600D6008F095FD104B1049114ABF
:202B80001B6800F500700860146034601B6914209847B8F1000F01D0BDE8F081BDE8F041D1
:202BA00008F096BD84010010A000244300002443800024430020094008200940B001001045
:202BC0001C200940A0022443064A074B10681B68DB0706D5054B1B681A1A30EA220028BFE3
:202BE000184670471C2009401420094018200940431E012B00D97047C30709D50B4B820799
:202C000019600ED50A480B4B012201601A6003E0830705D5064B1960074B01221A607047FB
:202C20007047044B01221A60704700BF182009401C20094080022443A0022443014B1868B7
:202C4000704700BF500B002008B5FFF771FF124B1860FFF73DFF114B1B686BB9104B1B6878
:202C600003B908BD0F4B10490020012208601A60BDE8084002F05CBA0A4B4FF480721A6002
:202C800008F010FD00F2052020F4FF70074B20F001001860E2E700BF500B0020A0002443B0
:202CA0008000244304200940800224431C200940820702D5034B01221A60C30700D47047B2
:202CC00008F006BD000C084008B508F0FDFC074B1A68012A03BF0649022219600022002840
:202CE00014BF104642F0010008BD00BF000C084051E5CC1A03490448044B012208601A6098
:202D0000704700BF00000840FFFF0F00000C084038B5FFF7D9FF064C064D0749074A01236F
:202D200025600B601360BDE83840FFF7C1BF00BF00000840FFFF0F000C00084004010043ED
:202D400003490448044B012208601A60704700BF00000840FFFF0F000C00084010B5044659
:202D6000C0B200F081F9204610BD00BF70B506460024451E04E015F8010F00F075F90134F9
:202D800030460DF0A7FB8442F5D30A2000F06CF900F07EF90128FBD0204670BD70B50446B4
:202DA000B0B10078C0B1A9B10025661804E014F8010F38B1B44205D000F056F9631C05F164
:202DC0000105F4D100F064F90128FBD0284670BD0546F7E70D46F5E70546F3E710B40B4BB5
:202DE0000B4C13F8012FFF2A0ED1A342F9D1094A39B11144013801390B78914200F8013FF7
:202E0000F9D15DF8044B7047034AF1E7C7FF0100CFFF0100F0120050C8FF010038B50C4D72
:202E200002202B685B6998472B6802205B6B984701280446064BF7D11B684FF40070DB69DA
:202E40009847044B044A1C6013689B07FCD538BDB801001028200860282008402DE9F04345
:202E600040F2F275DFF8E08083B0FFF7D7FFD8F800302B4EDB682B48984733682A4C5B69A0
:202E8000152098472368DFF8C490284F23F4FE63D9F8002023F0020323603D60D36B1D20D5
:202EA00098472349D9F800204FF0FF334FF0005008600093D2F840C01A481C211D22E0470C
:202EC000D8F800301748D3F804C01A494FF4E1326023E04740F2011240F2013E1649174B2A
:202EE000142008601968164841F01001196003681449002B0CBF134673460B603D60036859
:202F000053B12368326843F0500323601369152003B0BDE8F043184703B0BDE8F08300BF5A
:202F2000B001001000100040381000404410004090200240006CDC02341000402C10004028
:202F4000540B002030100040D0010010B401001008B5064B02201B685B6B9847012803BF89
:202F6000034B186800F00100002008BDB80100106C20084038B50446FFF7EAFF18B1264AC1
:202F800013681907FCD4032C03D0244B1B6803B138BDFFF7DDFFF0B9214D4FF400702B68FA
:202FA0001B6A9847032C2CD01E4B01211E4A196013689B07FCD51D2000F0A0FA1C2000F035
:202FC0009DFA4FF0FF3000F099FABDE838404FF0FF3000F093BA154B15481B68DB6898473F
:202FE000144B15201B685B69984740F2F270124A1249136823F4FE6323F0020313600860E6
:20300000CAE72B684FF400709B6A98472B684FF400701B6B9847C7E718100040540B002095
:20302000B80100102820086028200840D001001000100040B0010010381000404410004079
:2030400010B508F041FB0446054800F03BFA054B00221A6004B110BDBDE8104008F038BB6D
:203060009C040020540B002010B50446FFF770FF08B9FFF7F3FE044B2146BDE810401B68C7
:203080000248DB69184700BFD00100100010004008B5FFF75DFF18B1024B1868C0F3C0003B
:2030A00008BD00BF1810004038B5FFF7B7FE40F2F2710C4B0C4A1B68116013F0500F10D014
:2030C0000A4C0B4D05E02B681B699847094B1B6823B923680848DB06F5D538BDC0B29847E8
:2030E000F7E738BD401000404410004018100040D0010010540B0020001000402DE9F0417A
:203100000F461646054608F0DFFA00221446DFF894C1DFF894E14C484C490123DFF88C81BD
:20312000CCF80020CEF8003003600B60D8F8003020461B6801343F219847042CF6D1DFF8BC
:203140006C810024D8F8003020469B6801343F219847032CF6D13E4B1B68FFF7F1FD3D4816
:2031600002F088F8044630B1A368032003B198472468002CF8D16B1C0FD0374937480A6899
:203180000123AB4022EA0303046846F000520B603A432846236800219847314D314A00241C
:2031A0002B6814609B690720984700F08DFA00F04DFA2D482D4903682D4A23F00303036007
:2031C0000B682C4823F4C0530B601368296823F00F03136004608B6938209847264B274D5B
:2031E0001B682C60DB6801209847254B254A2C601C60136813F02004FBD1DFF8B4E0224F4C
:2032000022481849224B234A0126114DCEF800603C6004600C601C602B681F49136809688F
:2032200023F0030313604B681C48032198470C4B1B4A124812491B6804600C6016602A681C
:203240009B6BBDE8F0411847A0002443C00024432C200940580B0020D0200240B4010010F6
:20326000B80100100C40094000100940041009400810094080012243A001001040100940A9
:20328000200422431410094040012243440122430800094024220840D8010010004003409D
:2032A000181009400000244380002443840100108801044370B508F007FA01F0B7FE0028FE
:2032C00040F0A080FFF780FC0446FFF731FC201A202800F19B80654801F0CCFF0446002856
:2032E00000F0AB800225636823B19847A84228BF2846C5B22468002CF5D101F047FD04465B
:2033000001F03CFD002840F0A180012D7ED0574801F0B0FF0446002800F081800626A368B5
:203320000BB1284698472369246826EA0306002CF5D1FFF705FD730706F0060572D4002D7B
:2033400075D100F0C1F94A484A4903684A4A23F0030303600B68494C23F4C0530B601368C5
:203360004748216843F00F030024136004608B6939209847434B444E1B683460DB6801202E
:203380009847424A424B34601460186810F02000FBD108F053FD062D63D03E4C3E4D3F4E71
:2033A0002B682368326823F00303236053683C4803219847314B1B689B6B98472B6808F008
:2033C00031FE384A33680021116035485B68012198472368344A012143F003032360116076
:2033E0002B6808F051FEFFF773FBFFF7A9FC1F4801F040FF044628B1E36803B198472468D0
:20340000002CF9D1BDE8704008F062B908F060F9264A136823F00403136030BF70BDFFF773
:203420008FFC0625204B00221A60002D89D0134B28461B689B69984783E701F0A7FC0446CF
:2034400001F09CFC022500283FF461AFFFF726FB241AFFF7F3FB00EB44210220FFF7C8FBED
:2034600053E7022008F0DAF997E700BF580B0020001009400410094008100940B801001085
:2034800080012243A0010010401009402004224314100940242208402C200940D8010010FA
:2034A00000400340800104430C40094010ED00E0034A136823F00403136030BF704700BF95
:2034C00010ED00E00146014801F0E0BE580B00200146014801F01EBF580B002010B505487A
:2034E00001F0C4FEBDE81040034B02201B6820211B681847580B002084010010421C10D0B8
:2035000010B50446074B00211B684FF4C0421B689847054901230A68A34022EA03030B60BB
:2035200010BD7047B4010010D020024038B504460D4608F0C9F801230549064AA3400B60BD
:2035400042F8245000B138BDBDE8384008F0C0B8E02002405C0B0020064B002103F18002D9
:2035600043F8041F9342FBD1034B10201B681B69184700BF580B0020B0010010F8B5094B64
:20358000094F1D6800241D60012606FA04F32B42E0B203D057F8243003B198470134202C06
:2035A000F3D1F8BDE02002405C0B002008B520B9064B01201B685B689847044B40201B686A
:2035C0005B689847024B00221A6008BDA00100100002224338B50A4C08F006F9236801209D
:2035E0009B689847236805461B6801209847236801209B6898471128F9D1284638BD00BFDD
:20360000A001001010B582B0FFF7E4FF0446042008F0D8F8032810D00420032108F0AAF806
:20362000042008F0CFF80328FAD10090002106484FF040521C2308F053F8204602B0BDE8A2
:203640001040FFF7B3BF00BF00A00C4010B5FFF7C1FF0446042008F0B5F8022808D0042053
:20366000022108F087F8042008F0ACF80228FAD12046BDE81040FFF799BF00BF10B5FFF7D8
:20368000A9FF0446012008F09DF8012803D00320012108F06FF82046BDE81040FFF786BF54
:2036A00010B5FFF797FF0446012008F08BF8012802D0044B9B6B98472046BDE81040FFF753
:2036C00075BF00BF4800001010B5FFF783FF00210446032008F04EF8012008F073F810B151
:2036E000034B9B6B98472046BDE81040FFF75EBF4800001008B50AF0C5F930B1044B5B8849
:20370000022B0CBF0120022008BD022008BD00BFF80B002070B582B00AF0B4F940B914488D
:2037200001A90AF0B7F901280AD0002002B070BD0F4C6388022B08BF0120F0D102B070BD38
:20374000FFF7F6F96FF03F05094C2D1A03E0FFF7EFF9C54209D56088054E0228F7D1A0F1E1
:203760000200B0FA80F04009E8E77088F7E700BFF80B002030B589B002A8182140F6020222
:203780000AF064FB164B9DF81A201B689DF81B401979144D61F3050211468DF81A205A79F6
:2037A00002A862F387118DF81A109A7901A9012362F347048DF81B4007958DF816300AF001
:2037C00069F9012802D0002009B030BD02A80AF0B3F9A0F10100B0FA80F0400909B030BDDB
:2037E000C4040020C804002008B5FFF7C3FF012801D0002008BDFFF78DFFC0B208BD00BF29
:2038000038B50A4D00202C6803E024682B68A3420AD02379032BF8D1054801F065FC246831
:203820002B680120A342F4D138BD00BFEC0B00205806002008B50346B32994BF0A46B42286
:20384000024819460CF016FC012008BD7A0C0020F8B5144E35682B79032B01D00020F8BD01
:203860002B7A032B04D92F7AFFB23C1F8C4205DD2B680020336028712872F8BD224605F1A7
:20388000090107370CF0F6FBE95D042049B289B208F088FF3368002219681A7231601A71EE
:2038A0002046F8BDF40B002010B582B00AF0C8FA04460AF0E7F808B902B010BD084801A9BE
:2038C0000AF0E8F80128F7D1638803F44063002BF2D1638803F44063002BF5D0ECE700BFA3
:2038E000010001040B2801D001207047082A01D0022070470029FBD0054B0139A3F10800F0
:2039000013F8012D834201F8012FF9D100207047280C002010B584B00AF0B4F808B904B077
:2039200010BD42F20343002402A801A902940394ADF808300AF0AEF80028F0D09DF90A3066
:20394000803302D0204604B010BD9DF80C0000F00C00A0F10400B0FA80F04009DFE700BFE1
:2039600010B582B00AF08EF800B3124C6388022B1CD1FFF7CFFF0028FBD101A90E480AF008
:2039800089F802E06388022B03D10AF07BF80028F8D142F202426388934207D042F20740F0
:2039A000181AB0FA80F0400902B010BD012002B010BD00BFF80B00200100010430B585B051
:2039C0000AF060F8B8B10D4B5B88022B13D142F20345002402A801A902940394ADF80850C2
:2039E0000AF058F838B19DF80A305B06F2D09DF80C0005B030BDFF2005B030BDF80B00207B
:203A000038B50AF07BFA012814D0FFF783FF04460028FAD1FFF7A4FF074D0AF0FFF8FFF7B4
:203A200053FE06480649074A074B6C8004710C7114711C71012038BDF80B0020BC0D0020E3
:203A4000300D0020480E0020D40E002008B50AF055FA012809D00AF015F830B10A4B5B8869
:203A6000022B02D1FFF756FF08B1002008BDFFF7A5FFFF28F9D000F00300A0F10100B0FAA4
:203A800080F0400908BD00BFF80B0020F8B5FFF7F5FD0AF033FA01280CD009F0F3FF28B939
:203AA0000AF064F9012807D00020F8BD194B5B88022BF5D10120F8BD174A1849184B194C40
:203AC00092F805C04F795E7994F805E060F3830C60F3830E842560F3830760F3830682F8E5
:203AE00005C0146084F805E02160D580CD804F710B601A60DD805E71E5800AF04FF9FFF79B
:203B0000CFFDFFF737FE0128CED1BDE8F840FFF701BE00BFF80B0020BC0D0020480E002013
:203B2000D40E0020300D002030B585B007285AD8DFE800F01F26313E41595F044D4C217712
:203B400009F0A0FF00282CD06388022B08BF002527D1FFF705FF012814BF03240024FFF776
:203B6000D9FD012818BF0324002D3ED1204605B030BD012973D000296BD0022005B030BD6F
:203B8000A1F10B030F2BF8D83A4CC9B2A37B8B4269D0A173D4E7374C618609F073FF00288A
:203BA000D2D1FFF773FF012851D0032005B030BD304C2186C4E731F00302DED12D4CC1F31B
:203BC0004005237E607E61F30003DBB243F0020365F3820303F0870362F3C71362F3C71050
:203BE00023766076ACE70120C1E7FFF709FF2046BDE701F115031A2BBFD81F4D0C2455F823
:203C000034301D4899424FEAC4022EDD14F1FF34F5D209F037FF0028A9D04FF0000205EBF6
:203C2000C40423796079A17903F03F0360F3871361F34702102403A802A98DF80E308DF89C
:203C40000F20ADF80C4009F025FF00208FE705467FE70191FFF7D4FE0199084687E7FFF73A
:203C600015FF0128A1D1002081E7044B02441A60CFE700BFF80B00204C070100C40400202A
:203C800079B130B50C4683B0102874D8DFE800F0101D22272C733C6D42737373736064685D
:203CA0000B000220704705230B60002003B030BD09F0E8FE30B13E4B5888A0F10200B0FA67
:203CC00080F0400920600020F0E7394B00209B7B0B60EBE7364B00205B8E0B60E6E7344B7C
:203CE00000201B8E0B60E1E7314B002008601A7E02F001020A60197E01F004010029E2D065
:203D000042F002022260D1E72A4B00201B681B680B60CBE709F0B6FE78BBFFF7B7FE0128C7
:203D20003BD140F20343002201A869460192ADF8043009F0AFFE012837D06FF07F05FFF76A
:203D40005FFE15F1800F25600CBF03200020ADE70B230B600020A9E71A230B600020A5E7AD
:203D60006FF014030B600020A0E7114B002093F91C300B609AE7012098E70D4B5B88022B73
:203D8000CBD140F20343002201A869460192ADF8043009F07FFE012804D06FF07F03236052
:203DA000032083E79DF90250CBE79DF90250C6E7F80B0020C404002070B588B0064609F09A
:203DC00061FE70B3294B5B88022B08BF002528D1FEF7AEFE6FF01F04241A03E0FEF7A8FE19
:203DE000C44235D5FFF796FD0128F7D080BB182102A842F601420AF029F81D4B0120F6B255
:203E00008DF81760069309F0FFFF02A801A909F041FE78B901240AF00BF815BB204608B049
:203E200070BDFFF733FE012816D0012008B070BDFFF73EFBBDF80A3003F44063002BF7D06F
:203E4000BDF80A40A4B2B4F5105418BF0124E2E725B9022008B070BD0546B9E7FFF7D0FDA8
:203E6000F7E7FFF7CDFD2046E0E700BFF80B00207A0C002010B50C46B32C014694BF2246F7
:203E8000B42204480CF0F6F82046BDE81040FFF793BF00BF7A0C00200B2801D00120704732
:203EA000082A01D0022070470029FBD008B5124B083103F1080011F8012D03F8012F8342BC
:203EC000F9D109F0DFFD48B10C4B5B88022B05D1FFF746FDFFF71EFC032008BDFFF7D6FD13
:203EE000012801D0032008BDFFF73AFDFFF712FCFFF786FDF6E700BF1F0C0020F80B00202C
:203F000010B509F0FBFF012817D009F0BBFDB0B9FFF7BCFD012804460DD1FFF74FFDFF2856
:203F200005D000F0030010F1FF3418BF0124FFF767FD204610BDFFF763FD012010BD094B64
:203F40005B88022BE4D1FFF7E5FC0028FBD1FFF735FDFF28F1D000F0030010F1FF3018BFC7
:203F6000012010BDF80B00202DE9F84342F601092A4F2B48FFF7A6FA09F0C4FE38460021C1
:203F80008C220CF051F900218C2226480CF04CF900218C222448254C0CF046F900218C22F9
:203FA00023480CF041F9234E234B00252946204680221F60376075600CF036F9DFF884E094
:203FC00001234FF0390CFF207B21A6224FF0190807272661A4F8009084F80E8084F80FC020
:203FE000C4F814E02776A076E17622776373637684F83730FFF74AFD0128044603D02C46E7
:204000002046BDE8F8830D4809F030FF29460C4801F04AF82046BDE8F88300BFBC0D002079
:20402000B0040020300D0020480E0020F80B0020D40E0020EC0B0020F40B0020EC0701008A
:2040400058060020DC0B00200AB90020704708B508461146FEF7A2FE002008BD0FB400B5ED
:2040600083B004AB53F8041B04481A46019300F025F803B05DF804EB04B07047F40400202D
:20408000102970B50C46054602D80AE0102C0BD92B686868084910229847103C0028F5D043
:2040A00070BD08460029FBD022462B6868680249BDE87040184700BF3C0801002DE9F04F6E
:2040C00082460F468FB007924FF0000B3B78002B00F0E880252B08BF3E461BD03C4602E081
:2040E000252B04D014466378621C002BF8D1974216460CD0D51B39462A46DAF80030DAF831
:2041000004009847002840F079826378AB44002B00F0C88073780136002B00F0C38019465D
:204120000025A1F12003102B1BD8DFE803F0171A1A141A1A1A1A1A1A1A111A0E1A1A090032
:2041400045F0100516F8011FEBE745F00105F9E745F00605F6E745F00805F3E745F0020585
:20416000F0E7A1F13102082A0B46374600F2DC80A1F13002092A4FF000040AD804EB8404C2
:2041800003EB440417F8013F303CA3F13002092AF4D92E2B00F0D1804FF0FF366C2B00F0D3
:2041A0003D81682B00F04281782B00F28180DFE813F079007F007F007F007F007F007F0028
:2041C0007F007F007F007F007F007F007F007F007F007F007F007F007F007F007F007F00EF
:2041E0007F007F007F007F007F007F007F007F007F007F007F007F007F007F00BE027F008E
:204200007F007F007F007F007F007F007F007F007F007F007F007F007F007F007F007F00AE
:204220007F007F007F007F007F007F007F007F007F007F00BB027F007F007F00B802B502DD
:20424000B2027F007F007F007F007F007F007F007F007F007F007F007F007F007F007F0039
:204260007F00AF027F007F007F007F007F007F007F007F00AC027F00A902A602A302A0024F
:204280009D027F00A6027F007F007F007F009A0297027D007F007F0091027F008E027F008B
:2042A0007F00940258460FB0BDE8F08F45F4407505F4E063B3F5806F07F1010700F0CE8069
:2042C0004FD9B3F5C06F00F0A581B3F5E06F00F09A81B3F5A06F7FF4F9AE079B012C1A68A5
:2042E00003F1040307938CBF04F1FF340024EB078DF8202000F1D08150462146FFF7C0FEE8
:20430000002840F07B81DAF80030DAF8040008A901229847002840F071810BF1010C0CEB74
:20432000040505EB040BD1E62A2900F08C800B462E2B4FF000047FF42FAF7B78791CA3F115
:204340003002092A7AD80F46002606EB860603EB460617F8013F303EA3F13002092AF4D9F1
:204360001CE7B3F5807F00F0B080B3F5407F7FF4ADAE079BC34A1968C34815F4804F03F137
:20438000040308BF9046079318BF80460A460023002900F094810DF133094846110941EA94
:2043A00003714FEA131E02F00F0673460A4618F8061000F8011D52EA0301EFD1B9EB000629
:2043C000034600F07E810336B4424FF030024FF078014FF0230300F8022C8CBFA41B002494
:2043E000EA0700F8011C00F8033CA0F1030800F1A18150462146FFF743FE002840F0FE80C7
:204400004146DAF80030DAF8040032469847002840F0F4805E4406EB040B57E67B786C2BB1
:2044200000F00481013745F06005BDE67B78682B00F09381013745F04005B5E62A2B00F076
:2044400091810F46A8E6079B771C1C680433002C0793B8BF45F0010573789AE6079BD3F827
:20446000009004330793B9F1000F00F08F8299F80030002B00F0B2824B4613F8012F002A1B
:20448000FBD1C9EB0308002E02DBB04528BFB04644458CBFC8EB04040024E90700F1E080C0
:2044A00050462146FFF7ECFD002840F0A7804946DAF80030DAF8040042469847002840F07B
:2044C0009D80D84408EB040B00E6002EABBF25F0100501230196019315F40053049305F0C2
:2044E000E00300F0A880402B00F07F8200F24181002B00F02D82202B40F05A82079B1A1DB7
:20450000079293F90020D317002A73F10001C0F22A82CDE902230023059305F4C053B3F535
:20452000805F00F09281B3F5C05F00F0BF81B3F5006F00F067810DF136064FF00008019B96
:2045400041F20802984541F6080303EA050380F0338101999342C8EB0101019100F0468179
:2045600041F6080201999342414400F031814FF000094A46049B73B1059B002B40F08381CA
:2045800005F00603022B00F01B824048062B04BF02464FF0010909EB01039C428CBFE41A37
:2045A000002415F00103049306D1E80640F1F681019B2344049C0193B9F1000F07D01146AC
:2045C000DAF80030DAF804004A469847B0B9019B08EB0B05102B40F291819B4603E0BBF19D
:2045E000100F40F28E81DAF80030DAF80400284910229847ABF1100B0028F0D04FF0FF30F4
:204600000FB0BDE8F08F079B1A680433C2F800B007935BE5DAF80030DAF804001D490122B7
:2046200098470028EAD10BF1010B4FE5BB7845F080050237B8E5402B00F0C68100F2A980FC
:20464000002B00F09881202B40F02181079B049A05921A1D07921A780023CDE902235CE78F
:204660004946DAF80030DAF80400424698470028C4D150462146D844FFF702FD00283FF446
:2046800021AFBBE708080100F40701002C0801004C08010038080100DAF80030DAF80400F8
:2046A00008A9012298470028A8D1504621460BF10105FFF7E5FC00283FF433AE9EE70DF111
:2046C0003303302203F8012C581E04267CE645F41065EDE545F48065EAE545F4C855E7E599
:2046E00045F48855E4E545F4E065E1E545F48135DEE545F40075DBE545F40245D8E545F401
:204700002455D5E545F4A065D2E545F4C135CFE545F4B245CCE545F4A135C9E545F48445EE
:20472000C6E545F44245C3E545F4E135C0E545F4C065BDE54146DAF80030DAF8040032469B
:20474000984700287FF45AAF504621465E44FFF797FC00283FF45FAE50E7BB7845F0200582
:20476000023721E5079ABB78111D07911668023714E5602B00F0EC80802B40F01981079BB2
:20478000073323F0070303F108020792D3E90023BAE6602B00F0EF80802B78D1049B059397
:2047A000079B073323F0070303F108020792D3E90023CDE90223B0E6934200F0EC800022C6
:2047C000019241F608020199934241447FF4CFAEDDE9022313433FF4CAAE874B15F4804F8B
:2047E000864A4FF0020908BF1A46C3E60B46002908BF01230193019B4FF000094A4603EB74
:204800000801B7E6DDE9028942464B46134300F0E7800DF136031E460693404649460A2266
:2048200000230BF017F930324046494606F8012D00230A220BF00EF98046894658EA090373
:20484000EBD1069BC6EB030879E6DDE90223134300F0C6800DF1360306939E46DDE90223CA
:20486000D00840EA4370DE0802F007013346024630310EF8011D52EA0301F1D1069B7646FE
:20488000CEEB03085BE64FF001095D4A83E605F4C053002200200021B3F5805F0592CDE977
:2048A0000201D2D0B3F5C05F40F08580DDE90201544A554B15F4804F14BF904698460246A9
:2048C0000B46134300F08C800DF1360306931E4602460B46110941EA03714FEA131E02F053
:2048E0000F0073460A4618F8001006F8011D52EA0301EFD1069BC6EB030820E6019B9B4684
:204900004BB15A46DAF80030DAF804003F49984700287FF473AE31464246DAF80030DAF82D
:2049200004004D44984700287FF468AE019B2B441E46049B002B3FF46EAD50462146FFF7D8
:204940009FFB00287FF45AAE06EB040BFFF7BEBB079B1A6804330793002A4FEAE27373F19A
:204960000001BFF6D6AD524263EB4303CDE9022301230593D1E5049A079B05921A6800210F
:20498000104604330793CDE90201C6E5DFF884904FF0060877E5012301932CE75046214630
:2049A0000292FFF76DFB029A00283FF405AE25E600220023ADE5DDF814800DF13606BEE533
:2049C000134A4FF00109E6E5079B049A05921A1D07921A880023CDE902239EE5984652E587
:2049E0004FF000080DF13606A9E5079B1A1D0792B3F90020D31787E5200801001C080100C6
:204A000024080100F4070100080801004C080100280801003008010010B50446006830B145
:204A2000002100F041FB54F8040F0028F8D110BDF0B5038883B005465BB14A2B04D1882957
:204A40001BD0012003B0F0BD00230380032003B0F0BD194800F00EFC044630B1201DA168F5
:204A600000F064F92468002CF8D1144B01221A704A2301202B8003B0F0BD0F48019200F0E9
:204A8000F9FB04460028F3D0019A031D9A4205D02468231D002CEBD09A42F9D10648214673
:204AA00000F038FC064E6269A369376832600BB1E06998473760DBE7600F00205F2D0020FE
:204AC000700F002010B5064B002406481C7000F0CDFB2146BDE81040034800F0E5BA00BF76
:204AE0005F2D0020600F0020FC04002070B504460D48049D0078A261E361656130B9A16087
:204B00000A482146BDE8704000F0C0BB084D094B2E68201D2B6000F009F92E602146BDE889
:204B20007040024800F0B2BB5F2D0020600F0020700F0020FC04002010B5044C82B0246851
:204B40000094FFF7D3FF02B010BD00BF700F002070B5094B04461B783BB1084D084B2E689C
:204B600004302B6000F0ECF82E602146BDE87040044800F08BBB00BF5F2D0020700F0020CC
:204B8000FC040020600F002010B50A4B04461B783BB9C36003612146BDE81040064800F05A
:204BA000B9BB043000F0FCF82146BDE81040024800F0B0BB5F2D0020600F0020704700BFB7
:204BC00010B50E4C2368B3B1FDF768FF22685168136892681944091A4AB192E81800234440
:204BE0001B1A9268994228BF1946002AF5D1044B0844186010BD024A136010BD640F002076
:204C0000680F00202DE9F041038805467BB1592B08D1872912D0822920D059232B800120E2
:204C2000BDE8F081002303800320BDE8F081254A0120136059232B80BDE8F081214F3B682C
:204C4000002BEAD0D9688A4203D024E0D9688A4220D19B68002BF9D13B60DEE7194F4FF08E
:204C600000083C68002CD8D0002604E0A3682646002BD2D01C46204600F082FA0028F5D045
:204C8000E0688821224600F0DBF978B10E4800F02BFAEBE73B6099680029BED0C86882424A
:204CA0000BBF89680B4699608968F5E7E060A3682EB1B360C4F80880FFF782FFD1E73B60D7
:204CC000F8E700BF640F00200C05002010B50446104800F009FA1049E3680A684BB142B113
:204CE00094420FD0134601E09C420BD09B68002BFAD10A4BA2601B680C60E360BDE8104095
:204D0000FFF75EBF054B1B68E360BDE81040FFF757BF00BF0C050020640F0020700F002047
:204D2000014800F0E1B900BF0C05002010B5044600F012FA2046BDE81040FFF7C7BF00BF0F
:204D400010B5044600F010FA2046BDE81040FFF7BDBF00BF10B5044600F00CFA2046BDE8AE
:204D60001040FFF7B3BF00BFC068B0FA80F04009704700BF05C81044704700BF024B186857
:204D8000003018BF01207047640F0020024B186808B1024B18687047640F0020680F00206D
:204DA00010B5114B04461A68904218D05AB19368834208BF13460AD02BB19A68A24206D0EF
:204DC0001346002BF9D10023A360E36010BDA2689A60FFF7F5FE0023A360E36010BD826842
:204DE0001A60FFF7EDFEEEE7640F00202DE9F843DFF8A480274DD8F800702E68874247D07A
:204E000077B33B4601E0002B3BD01B689842FAD133B3837B8946044623B3002383736FB19C
:204E2000BC424FF0870106D0BB7BDB0703D53846224600F033F83F68002FF1D1A3683BB157
:204E40004C4505D02C6004F10C00832100229847D8F80000844208D12368C8F800302E6042
:204E6000BDE8F88338468442F6D00028F7D00368A34208D0002BF2D01A68A24204D0134671
:204E8000F8E7BDE8F883034622681A602E60E7E73B46BDE7700F0020740F002070B58668F0
:204EA0007EB104460A4802230460A37304F10C000D46B0470238012804D9832D02D0012357
:204EC000A37370BD20462146BDE87040FFF78EBF700F002070B50C4A0C4B146800251D708B
:204EE00084B1012601E0246864B1E37B002BFAD0A673E573204682210022FFF7CFFF246895
:204F0000002CF2D170BD00BF740F0020642D0020024B1878421C1A70704700BF652D002075
:204F200070B407480749084A0023084D084C8A2603700B6013602E70237070BC704700BFBC
:204F4000622D0020740F0020700F0020652D0020602D00202DE9F8432B4D2B780BB1FFF7E3
:204F6000B9FF2A4E33781BB3DFF8B4E028499EF80040013B04EB4402920088180134895C19
:204F8000DFF8A0C04268DFF8A0808068214FDBB204F01F0433708EF80040CCF80000C8F850
:204FA0000020397088B1812906D0847BE40705D428781844BDE8F88301238373FFF76EFF13
:204FC000337828781844BDE8F883134A134C12682260002AECD0A1460AE020683978837B64
:204FE000D8F80020DB0709D403682360002BE7D02B78002BF1D0FFF76DFFEEE7FFF74EFF29
:20500000D9F80000F0E700BF642D0020622D0020780F0020612D0020740F00206C0F002036
:20502000602D0020FC100020F8100020024A034B10781B7818447047622D0020642D002047
:20504000F0B50F4E3478202C17D00E4BDFF838E01B78DFF838C0234403F01F0303EB430513
:20506000AD000EEB05070134B86034707A608CF800300EF805100020F0BD0120F0BD00BF8A
:20508000622D0020602D0020780F0020632D002038B5837B034CDB07256801D5FFF7FEFEEC
:2050A000256038BD700F002070B404460D4D2868A04206D038B1034600E023B11B689C4280
:2050C000FBD170BC7047002CFBD0012600232060A673A3810A4620462C60812170BCFFF71D
:2050E000D7BF00BF740F002038B1837B013B012B03D8024A01231370C3737047642D0020FD
:20510000FDF710BD38B5094C049D226822B180E82A002060002038BD024680E82A0008463F
:205120002260FDF701FD002038BD00BF0011002010B5084C206858B1002243688168226014
:205140009847236823B1BDE810401868FDF7ECBC10BD00BF0011002010B541600446FDF79F
:205160009DFC206010BD00BF90E80C0013440360704700BF10B50446FDF790FC206010BDFA
:2051800010B50446FDF78AFC23686268C3F10103184482422CBF0020012010BDF8B5048827
:2051A0000546672C0CD0792C1BD01CB1002303800320F8BDFFF7ACFE1E4A1F4B10701C60EC
:2051C0001D4C264604E00A2813D023687E2B2BDD1A4800F0D3F8431CF5D167232B8001202D
:2051E000F8BD852901D00120F8BD134C00232360E6E7114C124F23680E49002603F1010E0A
:205200003A4609783046FE54C4F800E0FFF718FF0C4B324618688521FFF712FF0028E5D142
:2052200079232B800120F8BD05495A1CC8543260CEE700BFF73700200C120020841100202A
:205240008C110020700F002008B505480549802200F08CF8BDE8084003480021FFF724BF52
:2052600084110020041100201C05002000230360704700BF00687047006808B904E018467D
:205280000368002BFBD17047704700BF026842B1914203D11BE099420ED01A461368002BC1
:2052A000F9D100230B6002680AB90EE01A461368002BFBD1116070470B68136000230B600D
:2052C00000230B600268002AF1D1016070470B680360F3E710B404684CB1A14217D02246C3
:2052E00002E0994208D01A461368002BF9D10C6001605DF8044B70470C460B6813600023C6
:20530000236004680C6001605DF8044B70470B680360F4E7026842B18A4203D10BE0994202
:2053200004D01A461368002BF9D170471968116000221A607047134612680260F8E700BFFA
:2053400003682BB100201B680130002BFBD170471846704700B10068704700BF0AF0B2BF75
:2053600008B50AF0B9FF80B208BD00BF0023013A0160027143718371704700BF0346807976
:2053800059791A79091A114208D010B4411C1C680A40205C9A715DF8044B70474FF0FF301B
:2053A000704700BF08B5064803F0A8FB054BAA2201200021187059709A70DA7008BD00BF4F
:2053C000355E00008C13002010B5114C0220A17907F0E8F9A379112B0FD0062B0DD03A2B9B
:2053E00005BF94F8281094F82930002143EA01210120BDE8104007F0D5B9238D618D012076
:205400009942A8BF1946BDE8104007F0CBB900BFA82D002070B413780D7A83F002039D423A
:20542000044614D00B891BB94B89B3F57F4F2FD01E4A51F8085F13684E68012003F1080126
:20544000A0405E601D601160C0B270BC7047487A53789842E6D1887A93789842E2D1C87A71
:20546000D3789842DED1087B13799842DAD1487B53799842D6D1887B93799842D2D1D379DC
:20548000CA7B9A42CED1032303FA04F0C0B2DCE78B89FE2BCCD1054DC9892A68022322F8B1
:2054A000021B03FA04F02A60C0B2CEE71812002010B5084C2378012B01D0002010BD0146FE
:2054C0000822A01C0AF0A4FD00280CBF2046002010BD00BF8C13002008B50146102007F05C
:2054E0006FF9044B04489B6800219847BDE80840FDF726BC140A0100FD54000010B50C465C
:205500001146204602F010FE044B1B6813B19B6820469847024B1C6010BD00BFF018002073
:205520009C1300202DE9F041154D07462A4600239078713230B101330C2BF9D14FF0FF30E4
:20554000BDE8F081C3EBC30403EB04142E19717007F07EF8DFF830800A4A98F80030116811
:20556000C01A2F55B070CC1807F072F898F800202146821AF01C0AF07DFDB078BDE8F081F7
:20558000A013002098130020672D00202DE9F04F074683B092BB604E894636F8063C15464F
:2055A0009346FF244FF0FF38DFF878A1002B37D1B8F1FF3F4DD0012D06F1B8062BD1B8F1CA
:2055C000FF3F23D0B82000FB08F5DFF850810F2008EB0506A6F81290378207F0FDF80146C9
:2055E000304606F08DFD05F1180040444021FFF7B3FD234658B203B0BDE8F08F474D002618
:205600002C46238ABB422CD0B83436B3FF2358B203B0BDE8F08F36F8063C0125002BC7D042
:205620003046FFF7ADFD68B13D4B26F806BCE9B29A7822B11A788A4208BF83F802B071335D
:205640005345F5D1B8F1FF3FB5D136F8063C002BB1D1ECB24FFA84F8ADE7238A0126BB429A
:20566000D2D1638A002BCFD00F20019207F0B4F80146204606F04AFD019A0028C4D0F4B284
:2056800011462046FFF74EFF0028019A0CDB0028BCDDB82303FB06562346B28A1044B0823F
:2056A00058B203B0BDE8F08F4FF0000BDA461A4FDFF870904FF0B80837F8063CEBB15645B8
:2056C0001BD038460192FFF75BFD019AA8B100218E468C465FFA8AF008FB00535982104B66
:2056E000997831B11978814204BF83F802C00EF1010E71334B45F3D1F344B837BAF1000F7D
:2057000007D0BBF1000F81D011462046FFF70AFFBDE74FF0010ACFE7341200201C12002092
:20572000A0130020EC1800202DE9F04715090F2D07469A4602F00F043FD00F2C34D0A14664
:20574000A84666195DBB0F2E03DD5CB9E5B9BDE8F08707EB0800C6F1100200210AF064FD99
:20576000002CF3D0DFF87480C9F11000D8F800603844314622460AF07DFC022C26D034440B
:20578000C8F80040BDE8F08738465146BDE8F04702F0B0BB454620264FF010094C462A4674
:2057A00038460AF067FCCEE7A84605F11006002DF2D14FF010094C46D4E70F2C4FF0100838
:2057C000E8D042464546A146A618E9E70A2DD6D8FF22FE23FA723B73D1E700BF1812002087
:2057E0002DE9F04FDFF8EC82B04D89B0002788F800702F7006F018FFAD4E3060042006F071
:20580000D9FF3368DFF8D0E21C785A7804F0F80100B2C029CEF8000042EA042274D0E02939
:2058200063D1297893F8049093F802E0D878C2F30A044B1D4A46214640EA0E202B70FFF7AC
:20584000A5FEB0F1FF3F83465BD09A4AB82303FB0023B3F814A00123A245009734BF4FF0BF
:20586000000A4FF0010A019306F0F2FE2B788F4D834246D806F0ECFE2B7898F80080C51A86
:2058800008EBC9098C4AA944B9F57A7F156038D837B1316807EB080019442A460AF0EAFB2D
:2058A000002C78D0009B53B182494FFA8BF3B82000FB031305EB080292B29A821A84BAF1B7
:2058C000000F40F00D81019BDBB97C4B45441D807B4C236823B1FFF777FD23685B68984721
:2058E00003F056F909B0BDE8F08FBB4600973C46744F2A78995C01F0E000602854D041292E
:205900001DD009B0BDE8F08F297893F802E0D878C2F30A040B1D3A46214640EA0E202B709A
:20592000FFF734FEB0F1FF3F8346EAD0614FB82303FB00770122336822370092D9E73946F5
:20594000501CC0B2034403F12000D3F800A0D3F80490D3F808C0D3F80CE010338342C1F839
:2059600000A0C1F80490C1F808C0C1F80CE001F11001EAD118685B6808604B6098F8003040
:205980002932283388F80030009B4FF0000A2A70D146019368E7019B002B96D0BAF1000F42
:2059A000AFD0464B1C8093E7981890F801900232DFF828A14FFA89FC1344BCF1000FCAF881
:2059C0000030BCBF0133CAF80030CA064AD501F0080303F0FF0E002B40F0AF81DAF800307E
:2059E0001A461B78C3F3830343F060033B7012F8010BA7F802E0830803F0300343EA80132F
:205A0000CAF800207B7001F0040303F0FF02019233B9DAF8003013F8012BBA71CAF80030F8
:205A200011F0030100F09680274B5B5CFB7119F0400FC9F3011300F06181BCF1000FC0F25E
:205A400098810022002B00F08D8020490878012800F0B5811E4A00239A4699461360009B53
:205A6000019301E70B0700F16E81DAF800301A4633F8010F9B78A7F80100FB70787812F803
:205A800004EB00F00F00019202464FEA9E0303F0300040EA8E10104303F00F03019A43F052
:205AA0006003CAF800203B707870ACE7672D0020981300201C120020EC180020942D0020A9
:205AC000F0180020A82D00208C0801008C13002010120020662D00201412002018120020D0
:205AE0004FFA8BF7B82101FB07F1DFF834A3C2480AEB010319461A8C9C822231BF4E0AF0E0
:205B0000B9FABD4B06F24C5916F8012C22B116F8031C8F4200F03B8171364E45F4D1002254
:205B20001046B823FFB203FB07AAB54B5FFA8BFCAAF8122003F24C519A781AB11A78624578
:205B400008BF987071338B42F6D1019B002B3FF4BCAE26E7DAF8003013F8012BFA71CAF867
:205B6000003064E707F1080204920593A54A0F20D25CCDF80CC0029206F02EFE0599034600
:205B8000029A0498FFF7D0FDDDF80CC009F0080303F0FF0209F0030E002B36D019F0040F1A
:205BA00011D1994A0EF1FF331288012BADF81C2040F21881954B07F1180013F80E2007A9A4
:205BC0000023FFF7B1FD98F8002002F1280388F80030019B002B3BD1DAF800303268DFF83A
:205BE00044929B1A2B70002C00F09A80A4F128031A127B713A71BB79112B00F0C080009B8B
:205C00004FF0000AD14601932EE619F0040F00F0C880BCF1000FC0F2DE807D490B78012BE7
:205C20007FF418AF4B7893427FF414AF794A754B102013F80E901160029106F0CDFD0299A1
:205C400003464A46023107F11800FFF76DFDBAE7DAF80030197801F0F801F029BED11121D0
:205C6000B971187800F0F301F03900F00400C0B20329C4D8DFE801F0382F200259780233E8
:205C80000909A1F5756189B2090241F0F001398513F8011C01F00F01A1F5756189B2090285
:205CA00041F0F0017985CAF80030002800F0BC80303288F8002091E759780433A1F5805195
:205CC00089B2090241F0F001398533F8021CCAF800307985E9E7B3F801100433398513F8D9
:205CE000011CA1F58051D9E7B3F801100533398533F8021CCAF800307985D6E7464A0F20F9
:205D0000D25CCDF80CC0029206F066FD029A0346424907F10800FFF707FDDDF80CC035E7B0
:205D200006F096FC99F8002098F80030801A0344283B1A127B713A715DE7002360223A70D0
:205D40007B707B805FE6DAF80020602310463B7010F8013B03324FEA930E0EF0300E03F020
:205D60000F034EEA03037B700388CAF800207B8049E62A7831680A449278120962E6BB8818
:205D80004FF0000ABB85009BD14601936CE516F8020C314603EBC00000930AF06BF9009B16
:205DA000BAE61D4B102013F80E9006F015FD4A4603461A4907F11800FFF7B6FC03E748785C
:205DC00090427FF447AE134A881C116007F1080205900492CAE632682B7813449A7802F0A2
:205DE0000F021AE7DAF8003013F8012B8DF81D20CAF80030DEE600BFA82D0020A313002056
:205E0000A0130020A808010088080100A40801008C13002010120020900801009408010089
:205E20001C120020672D002033F8021BF985CAF800303DE72DE9F04FB34EDFF8FCA2002396
:205E400087B033708AF80030054606F037FC06F0EBFBAE4C04212060092006F0A3FCAC4B12
:205E60001B680BB1FFF7B0FA04A80190002D00F0A682294606F044F9A64B1B883E2B36D913
:205E80009AF80070D4F8008000230237A24D08F80730A24808F102032B60FFF709FB00289D
:205EA00000F00F8108F103032B604FF08009DFF874B29BF801209BF80010130943EA01135F
:205EC000DBB2980840EA8313DBB210075FFA83FE5FD1BBF8020000285BD1080740F0F98066
:205EE00012F0F00F40F0F5807823029361E0DFF834B29AF800C0DE4623680CF10105EDB22B
:205F000041221D441A700BF1200877460FCF474528606960AA60EB600EF1100E05F110051A
:205F2000F3D1BEE803002860696033780CF1290C28338AF800C033700199102006F040FC8A
:205F4000774B744D1B689847724B0028B3F8009036789AF80080ACBFC0F17D076827C6EB9C
:205F60000902C8EB0703B8BF15209A4240F3B880C0F178031E46029306F04CFC99FBF6F980
:205F800009F101098145C0F2D980002007B0BDE8F08F090703D112F0F00F00F084802A68C6
:205FA000DBF800001346106003F804EB2B60602302939BF80630112B00F005822A6802F8B0
:205FC000013B9BF807302A60402B00F00582FF2B00F02282012B61D02A6802F8013B2A60E2
:205FE000BBF808304F4A3BB953892BB993891BB9D389002B00F044824B48FFF759FA4B4BCA
:206000001860002800F07781427818F80730042043EA021308F807304349454AFFF7FAF956
:2060200060F03F005FFA80F99BF818303D49FF2B00F08F8101F118000391FFF739FA3B4A28
:2060400003991060002800F0CC8118F8072043781831134308F807300020019AFFF7DAF983
:2060600049F004095FFA89F949EA00002F685FFA80FE9BF806302822112B3270294900F00B
:20608000108123689AF800209DF80800FF1A991898548AF8007081F801E04DE7029B43F08F
:2060A000010302939CE7296823F03F031343214A0B701288CB1C2B606823A1F801200293BC
:2060C00077E71948FFF7F4F900287FF4EBAE8146EDE62B68702203F801EB02922B6068E7D6
:2060E00020680BEB0601404409F0C4FF28884044801B80B206F092FA0198FFF7EDF90120C2
:2061000007B0BDE8F08F00BF662D002098130020F0180020942D002018120020C02D002007
:20612000D4090100A82D0020B02D002010120020A02D0020AA2D0020672D0020C24BD4F8DC
:20614000008093F80090C14E41464A46002308F1040033600AF004F82B88DFF818E36FEAF7
:2061600083436FEA9343BA4AC3F3072309F104095FFA89F988F80030BEF800302888117895
:20618000C9EB070703F1010C27F007071A0A88F80330B04EAC4B88F8010088F8022059448B
:2061A0003A4608EB090083F80090AEF800C0376009F060FF07EB090080B206F02FFA06F0C1
:2061C0002FFBA54F804600283FF4DFAE0198FFF783F9404606F072FB404606F059FB9B4B49
:2061E0001B68012B3FF4D1AE043B012B7FF6CDAE2B883A686FEAC3436FEAD3439449C3F32D
:20620000072391F8008013703368029943442D881FFA83F88C4B21F0070005215570306058
:206220001970374632E0D6F8009020684A450346B8BF91469AF80050B8BF3A6083F804E0E8
:206240004A46284409F016FF09EB050080B206F0E5F906F0E5FA054600283FF496AE0198DD
:20626000FFF73AF9284606F029FB284606F010FB764A336812689844012AA2F104031FFA6F
:2062800088F83FF482AE012B7FF67FAE734B0BEB08011B884FEAD80E9845C8EB0302C2D3A4
:2062A0002DE74FF2B0020B8D5BBA9BB223F00F0080B290424A8D52BA92B200F0B28002F478
:2062C0007F42B2F5704F00F0308103F47F43B3F5704F00F0FA80624BF0223A7018687B1DEB
:2062E000C7F801001F465F4B30221B88327027F8023B2F60C5E648F2FE03BBF808205A49E9
:206300009A420FD14B8B6BB98B8B5BB9CB8B4BB908310420554AFFF77DF840EA09005FFA50
:2063200080F981E6D5F800C0DFF84CE10CF110032B60BEE80F00CCF80410CCF80000CCF83C
:206340000820CCF80C309BF818304749FF2B7FF471AE91F819C049F0080EBCF1020F5FFA26
:206360008EFE4B8B00F0BC80002B43D18B8B002B40D1BBF81E303C48002B3BD1038C33B9C7
:20638000438C23B990F82430002B00F0DA80BBF82020354B72BB93F822205ABB2F6849F0AF
:2063A000090E3A4602F801CB53F8231F063747F8051C1B795FFA8EFE13712F6059E62C4916
:2063C00005F09EFE58E5029B43F0040302939BF80730402B7FF4FBAD029B43F002030293C9
:2063E000FEE548F2FE030A8B9A4202D14B8B002B5BD0CE46D5F80080DFF880C008F1100787
:20640000BCE80F002F60C8F80000C8F80410C8F80820C8F80C302CE6029B43F00303029345
:20642000DEE522F00F0C84457FF449AFF3233B704B8D0A8D1B0A120A03EB021303F5AA63BF
:206440007B70BB1C4EE700BF672D00209C130020662D0020EC18002098130020942D002080
:20646000D02D0020D62D0020A82D0020A02D0020A8090100462D0020B02D0020C02D0020AB
:20648000138A002B7FF4B8AD538A002B7FF4B4AD938A002B7FF4B0ADD38A002B7FF4ACAD14
:2064A00049F040095FFA89F9BEE58B8B002BA0D1CB8B002B9DD11831019AFEF7ABFF40EA8E
:2064C00009005FFA80FE2F68D3E5F2233B70BBF82830244A1B0A7B7012883B1D7A8001E770
:2064E000002B87D18B8B002B84D1CB8B002B7FF440AF0B8C002B7FF43CAF4B8C002B7FF40B
:2065000038AF8B8C002B7FF434AF91F82630002B7FF42FAF2F6891F8273049F00B0E07F8D9
:20652000013B5FFA8EFE2F60A3E5F1220E4B3A701A883B1DA7F80120BBF82A20120AFA70D0
:20654000D0E62A6849F00A0E134603F801CB30F8251F171D80785FFA8EFEA2F801102F60CB
:20656000987086E5D22D0020D02D0020013A0A44914230B414D20C4625786378023403EB58
:2065800005239BB2184480B2834284BF013080B2A242F1D8CB43134423F0010302331944D2
:2065A000914201D030BC70470B7830BC1B02184480B2834284BF013080B2704730B5134B15
:2065C000134D1C782B796A79C4EB0323134483B09BB2ADF80630BDF8063005F10801184473
:2065E000202280B2FFF7C2FFBDF8062004F12801294492B2FFF7BAFF18B94FF6FF7003B0DF
:2066000030BD40BA80B203B030BD00BF682D0020A82D0020022318462DE9F0412C4D2D4E9A
:206620002A782D4F2832B1184978C90001F1070E704548DC8118745CDFF89880012C3144B5
:206640000AD01DD3632C0DD13B7003F0FFFE224AD0B10120BDE8F0814C7802340319DBB2A1
:206660001846E5E704F0C004802C19D0C02C24D0402C1ED04B7802330344DBB21846D7E781
:20668000431CDBB21846D3E72B78117828330B44984498F801300B4402331370BDE8F08166
:2066A0003B7002440221042002F018F90220BDE8F0813B700120BDE8F08198F818103B7022
:2066C000FF29EED1C5E73B700020BDE8F08100BF682D0020A82D00206A2D002070B4C278C8
:2066E000134C0A44D2B2E27083780E0A3344DBB2A37045789E4265700078207003D9013561
:20670000EDB265708DB1C9B28A420CDA0133DBB2A370074A3BB953780133DBB2537013B966
:2067200013780133137070BC704701302070EAE79C2D002010B5084C014620681430FFF797
:20674000CDFF064A2368507814789178D2781C7558759975DA7510BDA03100209C2D002089
:206760003A20FFF72BBF00BF08B501F0E1FB02F0A3F902F0B3F9104B002103F1280223F8B5
:20678000021F9342FBD10D4B0D4803F5F071002283F8252030338B42FAD10A4A0A4B4FF468
:2067A0008061118003F5A07100221A8220338B42FBD10A23037008BD8A330020A43100207D
:2067C0006B2D00204A2D0020B83300202DE9F041134E347814B3134F04F127033D88AB4211
:2067E00004DB00233B803370BDE8F081DFF83880A5F12802121B04F128012C1B4144A4B267
:2068000008F1280009F0ACFCA4F12803191200223C8088F8053088F804103270BDE8F081EC
:20682000682D0020942D0020A82D0020F0B40E4E0E4F3288002382423B700FD001231D46BE
:20684000314631F8024F5A1C844206D0142A1346D5B2F6D13D70F0BC70473D70002226F853
:206860001320F0BC704700BF8C3300206B2D0020F0B40C4E0C4F338800223A7073B1012304
:206880001D46314631F8024F5A1C34B1142A1346D5B2F7D13D70F0BC70473D7026F8130075
:2068A000F0BC70478C3300206B2D00202DE9F04FB64B042889B01D682BD0B54ADFF8F0A23B
:2068C000DFF8F0B20328CAF80020CBF800202DD0022800F09E80052800F0728112F83C1CA8
:2068E000A2F13C0401F0F001602900F0E980A94BA94EDFF8C482DFF8C4920193019A00237A
:20690000338088F8003089F80030137009B0BDE8F08FA04BA04EA14901930B88002B40F0BE
